101 12104288202313801041908161055A094101Bank                   My Bank Name                   
5200                FF3               US123456789 IATTRADEPAYMTCADUSD190816   0231380100000001