101 12104288202313801041908161055A094101Bank                   My Bank Name                   