101 12104288202313801041908161055A094101Bank                   My Bank Name                   
5200                FF3               US123456789 IATTRADEPAYMTCADUSD190816   0231380100000001
6271210428820007             0000100000123456789                              1231380100000001
710ANN000000000000100000928383-23938          BEK Enterprises                          0000001